:0200000480007A
:1000000097110000938181B197020100938282FFD2
:100010001681170200001302A23017050000130515
:100020006526731055307310203417030000130336
:10003000632B0293170500001305452E970500005A
:100040009385C52D170600001306462D63FAC500DB
:100050008322050023A0550011059105E3EAC5FEA2
:10006000170500001305852B970500009385052BC8
:10007000170600001306862A63FAC50083220500CE
:1000800023A0550011059105E3EAC5FE1705000000
:10009000130505299705000093858528170600009C
:1000A0001306062863FAC5008322050023A0550025
:1000B00011059105E3EAC5FE1705000013050526A5
:1000C0009705000093858525170600001306062571
:1000D00063FAC5008322050023A055001105910590
:1000E000E3EAC5FE17050000130545239705000048
:1000F0009385C5226300B502170600001306062289
:1001000063FAC5008322050023A05500110591055F
:10011000E3EAC5FE1705000013054520970500001A
:10012000938505206377B500232005001105E36D55
:10013000B5FE170500001305A51E97050000938561
:10014000251E6377B500232005001105E36DB5FE7C
:10015000170500001305C51C970500009385451C75
:100160006377B500232005001105E36DB5FE170583
:1001700000001305251B971500009385A59A898D0E
:10018000170300001303231802931704000013043D
:10019000E418970400009384641863079400032311
:1001A000040011040293D5BF0145814517030000E7
:1001B0001303A3030293170300001303C312029354
:0201C00001A09C
:1001C400411102C621A0B24785073EC63247B78710
:1001D4001E009387F747E3F8E7FE010001004101A1
:1001E4008280011106CE8547A307F100B7070010EE
:1001F4000347F1002380E700E1370347F100930749
:1002040000046308F7008347F100860793F7F70FAC
:1002140011A08547A307F100D1BF00000000000032
:1002240000000000000000000000000000000000CA
:1002340000000000000000000000000000000000BA
:1002440000000000000000000000000000000000AA
:10025400000000000000000000000000000000009A
:10026400000000000000000000000000000000008A
:10027400000000000000000000000000397106C00A
:1002840016C21AC41EC62AC82ECA32CC36CE3AD0DA
:100294003ED242D446D672D876DA7ADC7EDE732534
:1002A4002034F3251034170300001303430302938F
:1002B40073101534824092422243B2434245D245E0
:1002C4006246F246025792572258B258425ED25EB4
:1002D400625FF25F21617300203001A0828082801E
:1002E40001001300000013000000130000001300BD
:1002F400000013000000130000001300000021465A
:1003040063E9C50037060080232CA63023200500AE
:040314004CC18280D6
:040000058000000077
:00000001FF
