:0200000480007A
:10000000979100009381418097020100938282FFC3
:10001000168117820000130222FF17050000130546
:100020006526731055307310203417030000130336
:10003000632B0293170500001305452E97850000DA
:10004000938545FC178600001306C6FB63FAC500BE
:100050008322050023A0550011059105E3EAC5FEA2
:10006000170500001305852B97850000938585F9FA
:1000700017860000130606F963FAC50083220500FF
:1000800023A0550011059105E3EAC5FE1705000000
:100090001305C52897850000938505F7178600008E
:1000A000130686F663FAC5008322050023A05500D7
:1000B00011059105E3EAC5FE1705000013050526A5
:1000C00097850000938545F4178600001306C6F354
:1000D00063FAC5008322050023A055001105910590
:1000E000E3EAC5FE17050000130545239705000048
:1000F0009385C5226300B502170600001306062289
:1001000063FAC5008322050023A05500110591055F
:10011000E3EAC5FE178500001305C5EE97850000CC
:10012000938585EE6377B500232005001105E36D07
:10013000B5FE17850000130525ED97850000938512
:10014000A5EC6377B500232005001105E36DB5FE2E
:1001500017850000130545EB978500009385C5EAD8
:100160006377B500232005001105E36DB5FE178503
:100170000000130525EA978500009385A569898D00
:10018000170300001303231802931704000013043D
:10019000E418970400009384641863079400032311
:1001A000040011040293D5BF0145814517030000E7
:1001B0001303A3030293170300001303C312029354
:0201C00001A09C
:1001C400411102C621A0B24785073EC63247B78710
:1001D4001E009387F747E3F8E7FE010001004101A1
:1001E4008280011106CE8547A307F100B7070010EE
:1001F4000347F1002380E700E1370347F100930749
:1002040000046308F7008347F100860793F7F70FAC
:1002140011A08547A307F100D1BF00000000000032
:1002240000000000000000000000000000000000CA
:1002340000000000000000000000000000000000BA
:1002440000000000000000000000000000000000AA
:10025400000000000000000000000000000000009A
:10026400000000000000000000000000000000008A
:10027400000000000000000000000000397106C00A
:1002840016C21AC41EC62AC82ECA32CC36CE3AD0DA
:100294003ED242D446D672D876DA7ADC7EDE732534
:1002A4002034F3251034170300001303430302938F
:1002B40073101534824092422243B2434245D245E0
:1002C4006246F246025792572258B258425ED25EB4
:1002D400625FF25F21617300203001A0828082801E
:1002E40001001300000013000000130000001300BD
:1002F400000013000000130000001300000021465A
:1003040063E9C500378600802320A600232005006A
:040314004CC18280D6
:040000058000000077
:00000001FF
